{
  "contractName": "DVote",
  "abi": [
    {
      "constant": true,
      "inputs": [],
      "name": "getCreator",
      "outputs": [
        {
          "name": "",
          "type": "address"
        }
      ],
      "payable": false,
      "stateMutability": "view",
      "type": "function"
    },
    {
      "constant": false,
      "inputs": [
        {
          "name": "_address",
          "type": "address"
        }
      ],
      "name": "voteDemocrat",
      "outputs": [
        {
          "name": "",
          "type": "bool"
        }
      ],
      "payable": false,
      "stateMutability": "nonpayable",
      "type": "function"
    },
    {
      "constant": true,
      "inputs": [],
      "name": "getDemCount",
      "outputs": [
        {
          "name": "",
          "type": "uint256"
        }
      ],
      "payable": false,
      "stateMutability": "view",
      "type": "function"
    },
    {
      "constant": false,
      "inputs": [
        {
          "name": "_address",
          "type": "address"
        }
      ],
      "name": "voteRepublican",
      "outputs": [
        {
          "name": "",
          "type": "bool"
        }
      ],
      "payable": false,
      "stateMutability": "nonpayable",
      "type": "function"
    },
    {
      "constant": true,
      "inputs": [],
      "name": "getRepubCount",
      "outputs": [
        {
          "name": "",
          "type": "uint256"
        }
      ],
      "payable": false,
      "stateMutability": "view",
      "type": "function"
    },
    {
      "constant": true,
      "inputs": [
        {
          "name": "_address",
          "type": "address"
        }
      ],
      "name": "getBallot",
      "outputs": [
        {
          "name": "",
          "type": "string"
        }
      ],
      "payable": false,
      "stateMutability": "view",
      "type": "function"
    },
    {
      "inputs": [],
      "payable": false,
      "stateMutability": "nonpayable",
      "type": "constructor"
    }
  ],
  "bytecode": "0x6060604052341561000f57600080fd5b336000806101000a81548173ffffffffffffffffffffffffffffffffffffffff021916908373ffffffffffffffffffffffffffffffffffffffff16021790555060006001819055506000600281905550600380548060010182816100739190610192565b916000526020600020900160008060009054906101000a900473ffffffffffffffffffffffffffffffffffffffff16909190916101000a81548173ffffffffffffffffffffffffffffffffffffffff021916908373ffffffffffffffffffffffffffffffffffffffff160217905550506040805190810160405280601381526020017f43726561746f722063616e6e6f7420766f746500000000000000000000000000815250600460008060009054906101000a900473ffffffffffffffffffffffffffffffffffffffff1673ffffffffffffffffffffffffffffffffffffffff1673ffffffffffffffffffffffffffffffffffffffff168152602001908152602001600020908051906020019061018c9291906101be565b50610263565b8154818355818115116101b9578183600052602060002091820191016101b8919061023e565b5b505050565b828054600181600116156101000203166002900490600052602060002090601f016020900481019282601f106101ff57805160ff191683800117855561022d565b8280016001018555821561022d579182015b8281111561022c578251825591602001919060010190610211565b5b50905061023a919061023e565b5090565b61026091905b8082111561025c576000816000905550600101610244565b5090565b90565b610892806102726000396000f300606060405260043610610078576000357c0100000000000000000000000000000000000000000000000000000000900463ffffffff1680630ee2cb101461007d5780635a9a7d8c146100d2578063960cf5a914610123578063a5a62e741461014c578063e59d9b2f1461019d578063ed011032146101c6575b600080fd5b341561008857600080fd5b610090610278565b604051808273ffffffffffffffffffffffffffffffffffffffff1673ffffffffffffffffffffffffffffffffffffffff16815260200191505060405180910390f35b34156100dd57600080fd5b610109600480803573ffffffffffffffffffffffffffffffffffffffff169060200190919050506102a1565b604051808215151515815260200191505060405180910390f35b341561012e57600080fd5b610136610494565b6040518082815260200191505060405180910390f35b341561015757600080fd5b610183600480803573ffffffffffffffffffffffffffffffffffffffff1690602001909190505061049e565b604051808215151515815260200191505060405180910390f35b34156101a857600080fd5b6101b0610690565b6040518082815260200191505060405180910390f35b34156101d157600080fd5b6101fd600480803573ffffffffffffffffffffffffffffffffffffffff1690602001909190505061069a565b6040518080602001828103825283818151815260200191508051906020019080838360005b8381101561023d578082015181840152602081019050610222565b50505050905090810190601f16801561026a5780820380516001836020036101000a031916815260200191505b509250505060405180910390f35b60008060009054906101000a900473ffffffffffffffffffffffffffffffffffffffff16905090565b600080600090505b600380549050811015610391578273ffffffffffffffffffffffffffffffffffffffff166003828154811015156102dc57fe5b906000526020600020900160009054906101000a900473ffffffffffffffffffffffffffffffffffffffff1673ffffffffffffffffffffffffffffffffffffffff16148061037657508273ffffffffffffffffffffffffffffffffffffffff166000809054906101000a900473ffffffffffffffffffffffffffffffffffffffff1673ffffffffffffffffffffffffffffffffffffffff16145b15610384576000915061048e565b80806001019150506102a9565b600380548060010182816103a59190610781565b9160005260206000209001600085909190916101000a81548173ffffffffffffffffffffffffffffffffffffffff021916908373ffffffffffffffffffffffffffffffffffffffff160217905550506040805190810160405280600881526020017f44656d6f63726174000000000000000000000000000000000000000000000000815250600460008573ffffffffffffffffffffffffffffffffffffffff1673ffffffffffffffffffffffffffffffffffffffff168152602001908152602001600020908051906020019061047c9291906107ad565b50600160025401600281905550600191505b50919050565b6000600254905090565b600080600090505b60038054905081101561058e578273ffffffffffffffffffffffffffffffffffffffff166003828154811015156104d957fe5b906000526020600020900160009054906101000a900473ffffffffffffffffffffffffffffffffffffffff1673ffffffffffffffffffffffffffffffffffffffff16148061057357508273ffffffffffffffffffffffffffffffffffffffff166000809054906101000a900473ffffffffffffffffffffffffffffffffffffffff1673ffffffffffffffffffffffffffffffffffffffff16145b15610581576000915061068a565b80806001019150506104a6565b600380548060010182816105a29190610781565b9160005260206000209001600085909190916101000a81548173ffffffffffffffffffffffffffffffffffffffff021916908373ffffffffffffffffffffffffffffffffffffffff160217905550506040805190810160405280600a81526020017f52657075626c6963616e00000000000000000000000000000000000000000000815250600460008573ffffffffffffffffffffffffffffffffffffffff1673ffffffffffffffffffffffffffffffffffffffff16815260200190815260200160002090805190602001906106799291906107ad565b506001805401600181905550600191505b50919050565b6000600154905090565b6106a261082d565b600460008373ffffffffffffffffffffffffffffffffffffffff1673ffffffffffffffffffffffffffffffffffffffff1681526020019081526020016000208054600181600116156101000203166002900480601f0160208091040260200160405190810160405280929190818152602001828054600181600116156101000203166002900480156107755780601f1061074a57610100808354040283529160200191610775565b820191906000526020600020905b81548152906001019060200180831161075857829003601f168201915b50505050509050919050565b8154818355818115116107a8578183600052602060002091820191016107a79190610841565b5b505050565b828054600181600116156101000203166002900490600052602060002090601f016020900481019282601f106107ee57805160ff191683800117855561081c565b8280016001018555821561081c579182015b8281111561081b578251825591602001919060010190610800565b5b5090506108299190610841565b5090565b602060405190810160405280600081525090565b61086391905b8082111561085f576000816000905550600101610847565b5090565b905600a165627a7a72305820dcaa466aa9f23f01a4fb7140777e71db59bd8f85632ae06a1bd1376c36222a740029",
  "source": "pragma solidity ^0.4.17;\r\n\r\ncontract DVote {\r\n    \r\n    address creator;\r\n    uint repubCount;\r\n    uint demCount;\r\n    address[] whosVoted;\r\n    mapping(address => string) ballot; \r\n\r\n    function DVote() {\r\n        creator = msg.sender;\r\n        repubCount = 0;\r\n        demCount = 0;\r\n        whosVoted.push(creator);\r\n        ballot[creator] = 'Creator cannot vote';\r\n    }\r\n    \r\n    function getCreator() public constant returns (address) {\r\n        return creator;\r\n    }\r\n    \r\n    function voteRepublican(address _address) public returns (bool) {\r\n        for(uint i = 0; i < whosVoted.length; i++){\r\n            if(whosVoted[i] == _address || creator == _address){\r\n                return false;\r\n            }\r\n        }\r\n        whosVoted.push(_address);\r\n        ballot[_address] = 'Republican';\r\n        repubCount = repubCount + 1;\r\n        return true;\r\n    }\r\n    \r\n    function getRepubCount() public constant returns (uint) {\r\n        return repubCount;\r\n    }\r\n    \r\n    function voteDemocrat(address _address) public returns (bool) {\r\n        for(uint i = 0; i < whosVoted.length; i++){\r\n            if(whosVoted[i] == _address || creator == _address){\r\n                return false;\r\n            }\r\n        }\r\n        whosVoted.push(_address);\r\n        ballot[_address] = 'Democrat';\r\n        demCount = demCount + 1;\r\n        return true;\r\n    }\r\n\r\n    \r\n    function getDemCount() public constant returns (uint) {\r\n        return demCount;\r\n    }\r\n    \r\n    function getBallot(address _address) public constant returns (string) {\r\n        return ballot[_address];\r\n    }\r\n    \r\n}\r\n",
  "sourcePath": "C:\\Users\\Danny\\Desktop\\code\\truffle-dvote-webpack\\contracts\\DVote.sol",
  "compiler": {
    "name": "solc",
    "version": "0.4.18+commit.9cf6e910.Emscripten.clang"
  },
  "schemaVersion": "1.0.1",
  "updatedAt": "2018-01-03T06:34:54.097Z"
}